:100000000C945E000C9486000C9486000C94860080
:100010000C9486000C9486000C9486000C94860048
:100020000C9486000C9486000C9486000C94860038
:100030000C9486000C9486000C9486000C94860028
:100040000C94BF0D0C9486000C948D0D0C94670DD0
:100050000C9486000C9486000C9486000C94860008
:100060000C94090E0C9486000000000800020100A8
:100070000003040700000000000000000000000072
:10008000250028002B0000000000240027002A0083
:10009000040404040404040402020202020203032E
:1000A0000303030301020408102040800102040836
:1000B0001020010204081020280FCD1011241FBEAB
:1000C000CFEFD8E0DEBFCDBF23E0A2EEB1E001C0AC
:1000D0001D92A436B207E1F711E0A0E0B1E0EAE238
:1000E000FBE202C005900D92A23EB107D9F710E0E5
:1000F000CDE5D0E004C02197FE010E948713CC35E6
:10010000D107C9F70E94B20F0C9488150C94000017
:1001100020919E0281E0213208F044C080917A0251
:100120008111FCCF80919D0292E090937A0291E040
:10013000909379029FEF9093780210927702209328
:100140007602ADE7B2E0E6E5F2E090E0291331C0D7
:100150001092550290915502880F892B8093550279
:1001600080915402813049F51092540280915502D9
:100170008093BB008091BC0083FDF8CF85EC809319
:10018000BC0080917A028230E1F3809178028F3F47
:10019000B1F0809178028032A1F0809178028033B2
:1001A00091F084E010927C0210929E0210927B02E9
:1001B00008953D9131939F5FC9CF85EEE0CF80E0F8
:1001C000F1CF82E0EFCF83E0EDCF3F924F925F928D
:1001D0006F927F928F929F92AF92BF92CF92DF9257
:1001E000EF92FF920F931F93CF93DF9300D000D035
:1001F00000D0CDB7DEB7BC01990F880B990B0E94D8
:10020000DD104B015C0120E030E0A9010E94D61016
:10021000312C14E087FF07C0B7FAB094B7F8B09458
:100220003324339413E020E030E040E05FE3C50185
:10023000B4010E944C120E9431136B017C011E829A
:100240001D8281E090E0A0E0B0E089839A83AB83D7
:10025000BC83E12FF0E0AD81BE81AE17BF0794F4FF
:10026000AAE0B0E029813A814B815C810E94FA11B9
:1002700069837A838B839C838D819E8101969E8383
:100280008D83E9CF412C512C50E8652E5FE3752E0C
:100290001D8289819A81AB81BC81C816D906EA0684
:1002A000FB06F0F09D8191509D8320E030E040E21C
:1002B00051E4C301B2010E94B8122B013C01AC0110
:1002C0009B01C501B4010E943C1120E030E040E0F8
:1002D0005FE30E944C120E9431136B017C01D9CF65
:1002E00020E030E040E85FE3C301B2010E94D61095
:1002F00087FF2EC080E490E090934F0380934E03DD
:100300009093510380935003109253031092520321
:10031000909355038093540390935703809356030F
:1003200026960FB6F894DEBF0FBECDBFDF91CF91FA
:100330001F910F91FF90EF90DF90CF90BF90AF9003
:100340009F908F907F906F905F904F903F90089517
:10035000C114D104E104F104D9F48FE390E0909347
:1003600057038093560331107BC093E09983F98142
:10037000F7FDD6CFF53044F4EF2FF0E0EE0FFF1F7E
:10038000E25BFC4F11821082E981E150E983EFCFFB
:10039000B4E0B983B12C4AE0442E512C612C712C6D
:1003A000ED81EE2319F099249394EB11912CA980FF
:1003B000FA2DF150F9838F2E84E08A15C8F00A2DAA
:1003C00010E0000F111F025B1C4FC701B601A30113
:1003D00092010E9465136E5B7E4F979499249794C7
:1003E000DB018C91982A892D90E0F801918380831C
:1003F000F981F23071F4AA94AA94A98284E0881554
:1004000040F0E82DF0E0EE0FFF1FE25BFC4F1182A1
:100410001082C701B601A30192010E946513690110
:100420007A01B394C114D104E104F10409F0B8CF06
:10043000AD81AB1508F0B4CF332009F498CFE98132
:10044000AE2FA150A983E53008F091CFF0E0EE0F78
:10045000FF1FE25BFC4F80E490E09183808387CFB5
:10046000B2E0B983E3E0F2CF0895089508950895C6
:10047000AF92BF92CF92DF92EF92FF920F931F93B2
:10048000CF93DF936C017B018B01040F151FEB01F0
:100490005E01AE18BF08C017D10759F06991D601A7
:1004A000ED91FC910190F081E02DC6010995892B19
:1004B00079F7C501DF91CF911F910F91FF90EF90D8
:1004C000DF90CF90BF90AF900895FC01538D448D85
:1004D000252F30E0842F90E0821B930B541710F0EF
:1004E000CF96089501970895FC01918D828D9817FC
:1004F00061F0A28DAE0FBF2FB11D5D968C91928DD4
:100500009F5F9F73928F90E008958FEF9FEF089504
:100510002FB7F8948091500290915102A09152020D
:10052000B09153022FBF8093A7029093A802A0938B
:10053000A902B093AA028FE992E00E94740297FF89
:1005400026C02FB7F8948091500290915102A0914B
:100550005202B09153022FBF4091A7025091A802BE
:100560006091A9027091AA02841B950BA60BB70B90
:100570004091A3025091A4026091A5027091A6023D
:1005800084179507A607B707B0F28FEF9FEF08957E
:10059000FC01918D828D981731F0828DE80FF11D4D
:1005A000858D90E008958FEF9FEF0895FC01918D68
:1005B000228D892F90E0805C9F4F821B91098F7361
:1005C000992708958FE992E00E94D60221E0892BB5
:1005D00009F420E0822F089580E090E0892B29F033
:1005E0000E94E20281110C9400000895FC01A48D88
:1005F000A80FB92FB11DA35ABF4F2C91848D90E045
:1006000001968F739927848FA689B7892C93A08927
:10061000B1898C91837080648C93938D848D9813B1
:1006200006C00288F389E02D80818F7D8083089544
:10063000EF92FF920F931F93CF93DF93EC0181E032
:10064000888F9B8D8C8D98131AC0E889F9898081D9
:1006500085FF15C09FB7F894EE89FF896083E8890C
:10066000F98980818370806480839FBF81E090E0FE
:10067000DF91CF911F910F91FF90EF900895F62E8B
:100680000B8D10E00F5F1F4F0F731127E02E8C8D25
:100690008E110CC00FB607FCFACFE889F98980816A
:1006A00085FFF5CFCE010E94F602F1CFEB8DEC0F66
:1006B000FD2FF11DE35AFF4FF0829FB7F8940B8F87
:1006C000EA89FB8980818062CFCFCF93DF93EC01F1
:1006D000888D8823B9F0AA89BB89E889F9898C912A
:1006E00085FD03C0808186FD0DC00FB607FCF7CFE6
:1006F0008C9185FFF2CF808185FFEDCFCE010E94E6
:10070000F602E9CFDF91CF91089590E0FC01E8591E
:10071000FF4F2491FC01EC55FF4F3491FC01E05751
:10072000FF4FE491EE23C9F0222339F0233001F189
:10073000A8F4213019F1223029F1F0E0EE0FFF1F6B
:10074000E458FF4FA591B4918FB7F894EC916111E3
:1007500026C030953E233C938FBF08952730A9F0E3
:100760002830C9F0243049F7809180008F7D03C084
:10077000809180008F7780938000DFCF84B58F7762
:1007800084BDDBCF84B58F7DFBCF8091B0008F77A8
:100790008093B000D2CF8091B0008F7DF9CF3E2BF7
:1007A000DACF3FB7F8948091460290914702A0912A
:1007B0004802B091490226B5A89B05C02F3F19F009
:1007C0000196A11DB11D3FBFBA2FA92F982F8827D1
:1007D000BC01CD01620F711D811D911D42E0660FAC
:1007E000771F881F991F4A95D1F708958F929F927E
:1007F000AF92BF92CF92DF92EF92FF920E94D1030D
:100800004B015C0188EEC82E83E0D82EE12CF12C40
:100810000E94D103681979098A099B09683E7340CF
:1008200081059105A8F321E0C21AD108E108F10879
:1008300088EE880E83E0981EA11CB11CC114D1045F
:10084000E104F10429F7FF90EF90DF90CF90BF9083
:10085000AF909F908F90089585ED8093BC0080911C
:10086000BC0084FDFCCF10927A02089520912202F0
:10087000260F3327331F21323105ECF420917A0201
:10088000FC0190E080E0243069F082E00895A091BE
:1008900022022191AC014E5F5D4FA40FB52FB11D17
:1008A0002C930196861798F380912202680F60932B
:1008B000220280E0089581E008950895E0914F02BA
:1008C00080914E02E81730F4F0E0EE51FE4F808147
:1008D00090E008958FEF9FEF089590914F028091DF
:1008E0004E022FEF3FEF981748F4E92FF0E0EE515A
:1008F000FE4F208130E09F5F90934F02C901089521
:1009000080914E0290914F02891B990B0895CF92CE
:10091000DF92EF92FF920F931F93CF93DF937C01AF
:10092000CB018A0120917B02222389F0EB016B012C
:10093000C40ED51ECC15DD0569F06991D701ED9186
:10094000FC910190F081E02DC7010995F3CF642F50
:100950000E943604C801DF91CF911F910F91FF9043
:10096000EF90DF90CF900895CF93DF931F92CDB794
:10097000DEB7698320917B022223F9F020919E0249
:10098000203258F021E030E0FC013383228390E0F4
:1009900080E00F90DF91CF91089580917C02E82F45
:1009A000F0E0E358FD4F998190838F5F80937C0244
:1009B00080939E0281E090E0ECCF61E0CE01019651
:1009C0000E943604F7CFCF93DF9380915E0391E0CE
:1009D00090937B0280939D0210927C0210929E0263
:1009E00060E08CE393E00E94B404CEE4D3E068813D
:1009F00022968CE393E00E94B404FE013297618159
:100A00008CE393E00E94B40483E0CE35D80779F7F5
:100A1000DF91CF910C94880090E080E008954F9290
:100A20005F926F927F928F929F92AF92BF92DF926E
:100A3000EF92FF920F931F93CF93DF938C01EB0103
:100A400088818B32D1F18D32C9F52196EE24E39461
:100A5000888190ED980F9A3010F08E3289F560E021
:100A600070E0CB01FE012191A0ED8A2E820E39E0CB
:100A7000381508F440C06A3929E97207820729E16C
:100A8000920708F04DC0AAE0B0E09B01AC010E94C3
:100A9000FA11912CB12CA12C2401350140945094D1
:100AA000609470944616570668067906C8F1680D7A
:100AB000791D8A1D9B1DEF01D5CF2196E12CC8CF52
:100AC000F80110821182128213821482158216821A
:100AD00017821086C801DF91CF911F910F91FF906F
:100AE000EF90DF90BF90AF909F908F907F906F902E
:100AF0005F904F900895211113C0F80160837183B6
:100B0000828393830E94DB10F8016483758386835C
:100B100097838AE0E11001C088E0F8018087DACF8E
:100B2000F12CEAE08E2E912CA12CB12C61157105CF
:100B3000F0E88F07910540F0A50194010E9465132C
:100B4000CA01B901F394F2CFFE01299130ED320FC1
:100B50003A3010F4F394F8CF2E32F1F4EF012196ED
:100B6000FE012196208150EDD52ED20E29E02D15C3
:100B700098F06C3C3CEC73073CE08307910580F7F0
:100B8000AAE0B0E09B01AC010E94FA116D0D711D4D
:100B9000811D911DFA94E4CF20812F7DD0E0C0E02B
:100BA000253409F04FC021812D32A9F53296BB249E
:100BB000B394DF01D0E0C0E02F2D0F2C000C330BDD
:100BC0004AE0A42EFD01DD9040ED4D0D4A30A8F520
:100BD000AC9EA001AD9E500D1124CD2DDD0CDD0B82
:100BE000E097C40FD51FAE01420F531F4732510586
:100BF0004CF3BB20B9F080E090E0A0E0B0E8E11059
:100C000003C080E090E0DC01F80184839583A68333
:100C1000B7838CE083CF2B3219F03196B12CC9CF3A
:100C20003296FCCF80E090E0A0E8BFEFE110ECCF7F
:100C300080E090E0A0E8BFE7E7CFBB2019F0D195B6
:100C4000C195D109208121113BCFCF0DD11DF7FCDA
:100C5000DA950E94DB101C161D06E4F4F12CC0FF8F
:100C60000CC024E0F29EF0011124E65DFE4F2081CD
:100C70003181428153810E943C11D595C795F394EF
:100C8000209769F7E1109058F80164837583868393
:100C90009783BFCFD195C195D109F12C209791F3BE
:100CA000C0FF0CC024E0F29EF0011124EE5EFE4F66
:100CB00020813181428153810E943C11D595C79595
:100CC000F394ECCF80339CF08A3324F08F3524F0FA
:100CD0008B3724F481E0089581344CF08B35D4F3C4
:100CE00093ED980F81E09230B0F380E008958B325D
:100CF000B9F7F0CFFC018285811114C0A281B381C4
:100D0000848195812FEF3FEFA817B90730F4CD010B
:100D10000196938382832C9130E037FD20E0218778
:100D200081E0828781850895CF93DF93EC01CE0126
:100D30000E947A068B303CF489304CF4882349F0C9
:100D400090E080E008C08D3011F08032C9F71A863B
:100D5000EECF81E090E0DF91CF910895FC01848196
:100D60009581009799F0228133814681578124171C
:100D7000350718F0158214820895A9014F5F5F4F5F
:100D800053834283820F931FFC0160830895DF9297
:100D9000EF92FF920F931F93CF93DF93CDB7DEB700
:100DA00028970FB6F894DEBF0FBECDBF8C017B0134
:100DB000DC011696ED91FC9122813381848195812D
:100DC00093838283FA83E9831C821B823E832D8373
:100DD000821B930B98878F83C8010E947A06D82EB6
:100DE000F8011286C8010E947A06D8011A961C9250
:100DF000D816A9F1811110C081E090E028960FB6B5
:100E0000F894DEBF0FBECDBFDF91CF911F910F9140
:100E1000FF90EF90DF9008958C35D9F4C8010E94BF
:100E20007A06882349F3853719F484E090E0E6CF09
:100E3000EAE7F1E09081992351F0891306C081819E
:100E4000811105C082E090E0D9CF3296F3CFF8014E
:100E50001286682FCE0101960E94AE06C3CF60E0D5
:100E6000CE0101960E94AE068D819E81892B79F07C
:100E7000E981FA818B819C812F813885AC01421BED
:100E8000530B82819381840F951F938382838D817D
:100E90009E81D7018D939C93892B19F483E090E078
:100EA000ADCF90E080E0AACFFC0180819181892BB9
:100EB00021F460E070E0CB01089566E372E090E019
:100EC00080E00895CF93DF93DC01EB01EC81FD819D
:100ED0008A819B810896E817F90730F4F0E0E0E09A
:100EE000CF01DF91CF9108953897FD83EC83309740
:100EF000A9F31296CD91DC911397209791F0CF0131
:100F00008C1B9D0B23E0959587952A95E1F78D83A2
:100F10001396FC93EE931297158214821782168211
:100F2000DFCF1196FC93EE93F3CFFC0101900020EC
:100F3000E9F73197AF01481B590BBC018FE992E0EB
:100F40000C9438020F931F93CF93DF93EC018881A9
:100F50009981009759F02A813B812617370730F095
:100F600081E0DF91CF911F910F9108958B016F5F09
:100F70007F4F0E94B214009759F0998388831B8396
:100F80000A832C813D81232B59F7FC011082E8CF85
:100F900080E0E7CF0F931F93CF93DF938B01EC019A
:100FA0002097E1F06E817F8160177107B9F001151C
:100FB000110541F06115710529F0C8010E947815ED
:100FC000882361F08D81882339F028E08202C001F6
:100FD0001124C80FD91FE4CFD0E0C0E0CE01DF91CB
:100FE000CF911F910F9108958F929F92AF92BF92D0
:100FF000CF92DF92EF92FF920F931F93CF93DF93E5
:10100000CDB7DEB7CD54D1090FB6F894DEBF0FBE11
:10101000CDBF8C016B010E9494062E969FAF8EAFC0
:101020002E97CE01845B9F4F0E945407672B09F0D7
:1010300098C280FD96C2C8010E947A06873209F4E0
:10104000F6C114F5823209F4F2C1C8010E947A0691
:10105000F82EFE0131964F01E12C5F018F2D0E9489
:101060006206882309F404C2FFE3EF1609F400C204
:10107000D8011A961C92E394F401F1924F01C80131
:101080000E947A06F82EEACF8B3509F45EC08B37C2
:10109000E1F6D60114968C911497807880621496AC
:1010A0008C93149711961C921E9213961C921E926A
:1010B0001297F8018085882309F4B6C1C8010E94FF
:1010C0007A068B3709F05BC0D8011A961C92C801CA
:1010D0000E9494062C969FAF8EAF2C97CE01865B14
:1010E0009F4F0E945407672B09F01FC180FD1DC14F
:1010F000C8010E947A068D3709F45AC0C8010E94BF
:101100007A06873209F496C0823209F493C0D80176
:101110001696ED91FC912281338184819581938390
:101120008283FA83E9831C821B823E832D83821B88
:10113000930B98878F83C8010E947A06F82E81113D
:101140000FC1EE24E394F12C7CC0D60114968C914F
:1011500014978078806414968C93149711961C923F
:101160001E9213961C921E921297F8018085882376
:1011700009F45AC1C8010E947A068B3519F082E041
:10118000E82E50C1D8011A961C92C8010E949406FC
:101190009A838983CE0101960E945407672B09F038
:1011A00046C080FD44C0C8010E947A068D3591F486
:1011B000F8011286E12C36C180FD39C0C8010E94B9
:1011C0007A068D35A9F3C8010E947A068C32B9F6E9
:1011D000F8011286D8016D917C91C6010E946207C8
:1011E000BC01892B09F41CC1F801908591509087AE
:1011F000C8010E94F4079A838983D80118968C91BC
:1012000018978F5F18968C93CE0101960E94540711
:10121000672B69F480FD0BC0C8010E9494069A8375
:101220008983CE0101960E945407672B29F2E98039
:10123000FA8081C0BE016F5B7F4FC8010E94C70664
:101240007C012B96EFAE2B972C96FFAE2C97CE0100
:10125000865B9F4F0E945407672B09F06CC080FD8E
:101260006AC023966EAD7FAD2397D6018D919C9178
:101270000E94CA077C01892BA1F4F8016081718169
:10128000C6010E946207FC01892B09F4C9C023969C
:101290002EAD3FAD23978481806884833783268376
:1012A0007F01C8010E9494062C969FAF8EAF2C97A9
:1012B000CE01865B9F4F0E945407672BB1F580FDDE
:1012C00034C0C8010E947A068A3309F058CFD80189
:1012D0001A961C921A9718968C9118978150189606
:1012E0008C93B701C8010E94F4072C969FAF8EAF74
:1012F0002C97F80180858F5F8087CE01865B9F4F9A
:101300000E945407672B89F480FD0FC0C8010E941A
:1013100094062C969FAF8EAF2C97CE01865B9F4F85
:101320000E945407672B09F456C02B96EFAC2B97FD
:101330002C96FFAC2C97C701C35BDF4F0FB6F89418
:10134000DEBF0FBECDBFDF91CF911F910F91FF90F8
:10135000EF90DF90CF90BF90AF909F908F900895C7
:101360000E94620642E0E42E882309F4ECCEF801E4
:1013700012866F2DCE0101960E94AE06C8010E9412
:101380007A06F82E0E9462068111F1CF60E0CE014C
:1013900001960E94AE068D819E81892B79F0E981AC
:1013A000FA818B819C812F813885AC01421B530BC4
:1013B00082819381840F951F938382838D819E8187
:1013C00023969FAF8EAF2397E12C892B09F0BBCEDC
:1013D00033E0E32EB8CE80FDA8CFC8010E947A0684
:1013E0008D3721F4D8011A961C92E4CEC8010E94D0
:1013F0007A068C3209F0C3CEF8011286C8010E9429
:1014000094062C969FAF8EAF2C97CE01865B9F4F94
:101410000E945407672B09F088CF80FF6FCE85CFDD
:1014200023E0E22EF12C87CF95E0E92EFBCFBE0121
:101430006F5B7F4FC8010E94C7069A838983CE01E4
:1014400001960E945407672B09F0F1CE80FDEFCE84
:1014500023962EAD3FAD2397D60114968C91149709
:101460008078856014968C9314972D933C93A2CE2C
:10147000F501EE0DF11D108289818437B9F4D60192
:1014800014968C9114978078866014968C9381E0E2
:1014900090E0A0E0B0E0F60180839183A283B38363
:1014A000F12CF4E0EF121CC080E01AC0863689F4FB
:1014B000D60114968C9114978078866014968C933C
:1014C000F601108211821282138281E0F12CF5E084
:1014D000E9CF8E3639F481E0F12C44E0E41621F3B3
:1014E000E82E29CFB501CE018F5B9F4F0E940F05DB
:1014F00025964CAD5DAD6EAD7FAD25972A968FAD2F
:101500002A978A3061F08C30C1F0883009F037CEEC
:10151000D60114968C9114978078886006C0D60105
:1015200014968C91149780788A6014968C93F601A7
:1015300040835183628373833DCE29964CAD5DAD6C
:101540006EAD7FAD2997D60114968C911497807853
:101550008C6014968C93F60140835183628373836D
:1015600029CE2D968FAD2D972E969FAD2E97E4CE3A
:101570004F925F926F927F928F929F92AF92BF92A3
:10158000EF92FF920F931F93CF93DF93CDB7DEB708
:10159000C053D2400FB6F894DEBF0FBECDBF8FE967
:1015A00092E00E94D602892B09F483C089E891E079
:1015B0000E9495078AE991E00E9495078FE992E0E1
:1015C0000E94D602892BD1F31A8219821C821B82B7
:1015D0001E821D8270E060E0CE0101960E94A2078B
:1015E00029813A81811136C02115310519F0C901CF
:1015F0000E9429141A8219821E821D821C821B825B
:101600000E94880297FD2EC08E36910559F1C25F67
:10161000DD4F8883CE50D240C15FDD4F1882CF505E
:10162000D2400D811E810F5F1F4FB801CE01019680
:101630000E94A207882321F329813A818D819E810E
:10164000BE01625F7D4F820F931F0E9481151E8332
:101650000D83D6CF1E821D8264E871E0C9010E940D
:101660008115CECF8091480390914903009709F4EA
:10167000CBC069817A816115710509F4C3C04091BD
:101680004A0350914B032D813E814217530708F4C2
:10169000B9C00E9481158D819E8190934D038093E6
:1016A0004C031E821D8289819A81009711F00E944D
:1016B0002914CE010E969A8389839C838B838EE0B6
:1016C00092E08C0F9D1F9E838D8398878F838D85DD
:1016D00080788D87409148035091490380914C0355
:1016E00090914D03840F951F9E012F5F3F4FC25F66
:1016F000DD4F39832883CE50D240C05FDD4F598300
:101700004883C051D240CE5EDD4F99838883C25159
:10171000D240CC5EDD4F39832883C451D2408AE069
:10172000CA5EDD4F8883C651D240C85EDD4F188245
:10173000C851D240BE01675F7F4FCE01825F9D4F8F
:101740000E94F407C15DDD4F99838883CF52D24058
:10175000CE01815D9D4F0E945407672BC9F480FD27
:1017600017C0C95EDD4F8881C751D240882381F000
:101770008D85982F907661F48F778450823040F079
:1017800082E090E0C15DDD4F99838883CF52D240E3
:10179000C15DDD4F08811981CF52D240CE01815DFC
:1017A0009D4F0E945407672B09F07FC07C01E1E048
:1017B000EE22FF2480FD79C08D8585FF60C00985FC
:1017C0001A856DE971E0C8010E94CA07FC01892BE6
:1017D00009F455C084818F778A3009F453C08C3066
:1017E00051F1883009F04BC0808191818A30910598
:1017F0000CF48CC031E020E00A9709F430E0832F2C
:10180000922F3AC00E94291489819A8190934903AA
:10181000809348038B819C8190934B0380934A0370
:101820008D819E8190934D0380934C031A8219827F
:101830001C821B8236CF20E030E040E251E4608120
:101840007181828193810E944B122B013C0120E027
:1018500030E0A9010E94D61087FD58C0AA24A394A5
:10186000B12C20E030E0A901C301B2010E94601355
:1018700018160CF0A12CC501019709F047C087E5A7
:1018800094E08FC0808191810A9697FD0BC031E072
:1018900020E0892B09F430E0832F922F91958195D8
:1018A0009109EACF8FEF9FEFF9CF82EF93E00E948B
:1018B000E5000630110538F5000F111FF801EA5F49
:1018C000FE4F80819181009711F00E9495078AE96F
:1018D00091E00E9495070E94E304C05DDD4F0FB6C2
:1018E000F894DEBF0FBECDBFDF91CF911F910F9156
:1018F000FF90EF90BF90AF909F908F907F906F90F0
:101900005F904F90089585E891E0DFCF6DE971E039
:10191000C8010E94CA07FC01892B51F094819F776E
:10192000963009F449C008F03FC0943008F061C017
:1019300047010F2C000CAA08BB08B7FEA6C06DE239
:101940008FE992E00E94180322273327A901281962
:1019500039094A095B09C25DDD4F1882CE52D24077
:101960000EE012E00C0F1D1F005E1F4F9AE0892E43
:10197000912CA12CB12CCA01B901A50194010E949E
:101980006513605DF80162938F01211531054105F2
:10199000510589F70115110519F0C8010E94950735
:1019A000C7010E94E50097CF9A3099F09C3009F466
:1019B00067C0983009F0BCCF80819181A281B3814A
:1019C0008115F0E89F07A105B10508F0B1CF7C01B2
:1019D000AFCF80819181A281B381813020E89207CD
:1019E000A105B10508F0A4CFEE24FF24E81AF90AF6
:1019F0009FCF60817181CE01825F9D4F0E940F0554
:101A0000C25FDD4F88819981AA81BB81CE50D240CF
:101A1000CA5EDD4F2881C651D2402A3031F02C30C9
:101A200061F0283009F084CFCBCF8130E0E89E0709
:101A3000A105B10508F07CCFD7CFCE5EDD4F888001
:101A40009980AA80BB80C251D24020E030E040E0C3
:101A500057ECC501B4010E94601387FD69CF20E0F7
:101A60003EEF4FEF56E4C501B4010E94D6101816A0
:101A70000CF45ECFC501B4010E942A137B0158CF3C
:101A800080809180A280B380E0CFA5019401C25DE7
:101A9000DD4F1882CE52D2400EE012E00C0F1D1F17
:101AA000005E1F4F8AE0882E912CA12CB12CCA0118
:101AB000B901A50194010E946513605DF80162936C
:101AC0008F01211531054105510589F763CF1F921B
:101AD0000F920FB60F9211242F933F934F935F9362
:101AE0006F937F938F939F93AF93BF93EF93FF93E6
:101AF0008FE992E00E94F602FF91EF91BF91AF91C2
:101B00009F918F917F916F915F914F913F912F9115
:101B10000F900FBE0F901F9018951F920F920FB647
:101B20000F9211242F938F939F93EF93FF93E09144
:101B3000AF02F091B0028081E091B502F091B6025F
:101B400082FD1BC090818091B8028F5F8F732091BE
:101B5000B902821741F0E091B802F0E0E156FD4F82
:101B6000958F8093B802FF91EF919F918F912F9164
:101B70000F900FBE0F901F9018958081F4CF1F9289
:101B80000F920FB60F9211242F933F938F939F9331
:101B9000AF93BF938091500290915102A091520255
:101BA000B09153023091450223E0230F2D3758F5B1
:101BB0000196A11DB11D2093450280935002909380
:101BC0005102A0935202B093530280914602909129
:101BD0004702A0914802B09149020196A11DB11D92
:101BE0008093460290934702A0934802B093490223
:101BF000BF91AF919F918F913F912F910F900FBE09
:101C00000F901F90189526E8230F0296A11DB11D75
:101C1000D2CF1F920F920FB60F9211242F933F93A2
:101C20004F935F936F937F938F939F93AF93BF93E4
:101C3000EF93FF938091B900887F803609F44AC002
:101C4000F0F5883209F4A7C018F5803109F49BC07B
:101C5000B8F4882309F4F9C0883009F494C0FF91DE
:101C6000EF91BF91AF919F918F917F916F915F9114
:101C70004F913F912F910F900FBE0F901F9018958D
:101C8000883109F488C0803251F78093780214C0FB
:101C9000803409F49DC040F48033B9F38833F9F6F9
:101CA0008093780285ECB0C0803509F485C0883512
:101CB00009F496C0883499F60E942C04D0CF883954
:101CC00009F48CC038F5883729F050F4883611F0C3
:101CD000803729F683E080937A021092440257C03D
:101CE000883809F47BC0803919F0803809F0B7CF03
:101CF00080914402803208F071C0E091440281E09A
:101D00008E0F809344028091BB00F0E0EC5DFD4FAC
:101D100080833DC0803B39F0E0F4803A09F479C01B
:101D2000883A09F09CCF84E080937A0210922302D3
:101D300010922202E0914C02F0914D02099580919F
:101D4000220281110FC081E08093220210920202D0
:101D500009C0803C09F4A6CF883C09F4A3CF883B96
:101D600009F07DCFE091230281E08E0F8093230262
:101D7000F0E0EE5FFD4F80818093BB0090912302E5
:101D80008091220229C0809155028093BB0085EC8E
:101D90008093BC0064CF909177028091760298176F
:101DA00058F5E091770281E08E0F80937702F0E0A2
:101DB000EA5AFD4F8081E9CFE091770281E08E0FF2
:101DC000809377028091BB00F0E0EA5AFD4F808358
:101DD00090917702809176029817C8F285E8D8CF63
:101DE000E091770281E08E0F809377028091BB00B3
:101DF000F0E0EA5AFD4F80838091790281115CCF37
:101E000081E08093540284EA8093BC0010927A02AD
:101E100026CF85EC8093BC0010927A028091440218
:101E2000803230F4E0914402F0E0EC5DFD4F10822E
:101E30006091440270E0E0914A02F0914B0284E22A
:101E400092E00995109244020ACF1092780234CFA2
:101E50001092A2021092A10288EE93E0A0E0B0E0FE
:101E60008093A3029093A402A093A502B093A6022C
:101E700026E531E03093A00220939F0225EC30E06C
:101E80003093AC022093AB0224EC30E03093AE02EE
:101E90002093AD0220EC30E03093B0022093AF02EB
:101EA00021EC30E03093B2022093B10222EC30E01A
:101EB0003093B4022093B30226EC30E03093B602A4
:101EC0002093B5021092B8021092B9021092BA0291
:101ED0001092BB0210923F0310923E038093400386
:101EE00090934103A0934203B093430388E691E0AB
:101EF00090933D0380933C0310925F03109249033B
:101F00001092480310924B0310924A0310924D0313
:101F100010924C0370E060E088E493E00E94A20716
:101F20002091480330914903811113C021153105D7
:101F300019F0C9010E942914109249031092480314
:101F400010924D0310924C0310924B0310924A03CF
:101F5000089510924D0310924C0364E871E0C9019A
:101F60000C948115789484B5826084BD84B58160B9
:101F700084BD85B5826085BD85B5816085BD809154
:101F80006E00816080936E001092810080918100CC
:101F900082608093810080918100816080938100C4
:101FA000809180008160809380008091B100846086
:101FB0008093B1008091B00081608093B0008091E7
:101FC0007A00846080937A0080917A0082608093A6
:101FD0007A0080917A00816080937A0080917A0003
:101FE000806880937A001092C100E091AF02F09176
:101FF000B00282E08083E091AB02F091AC021082EB
:10200000E091AD02F091AE028FEC80831092B702A6
:10201000E091B302F091B40286E08083E091B102D6
:10202000F091B202808180618083E091B102F091F1
:10203000B202808188608083E091B102F091B202A7
:10204000808180688083E091B102F091B20280814A
:102050008F7D8083E1EBF0E02491EDE9F0E0849165
:10206000882399F090E0880F991FFC01EA57FF4FF1
:10207000A591B491FC01E458FF4F859194918FB7DD
:10208000F894EC91E22BEC938FBF61E08DE00E941D
:1020900085030E94F60360E08DE00E9485030E94A4
:1020A000F60380E780935E0310924F0210924E0277
:1020B00010927C0210929E0210927A02C1E0C093AC
:1020C00079021092540261E082E10E94850361E08E
:1020D00083E10E9485038091B9008E7F8093B900CF
:1020E0008091B9008D7F8093B90088E48093B80017
:1020F00085E48093BC0084E392E090934D0280934A
:102100004C0285E392E090934B0280934A028091C7
:102110005E03C0937B0280939D0210927C0210921A
:102120009E0261E28CE393E00E94B4040E94880066
:1021300080915E03C0937B0280939D0210927C028B
:1021400010929E0261E88CE393E00E94B4040E9426
:10215000880080915E03C0937B0280939D02109261
:102160007C0210929E026FEE8CE393E00E94B40416
:102170000E94880084E690E00E94E5000E94E3044B
:10218000C0E0D0E00E94B80A2097E1F30E94E2028A
:102190008823C1F30E940000F5CF809148039091FD
:1021A0004903009711F00C94291408950E94181106
:1021B00008F481E00895E89409C097FB3EF49095F7
:1021C0008095709561957F4F8F4F9F4F9923A9F010
:1021D000F92F96E9BB279395F6958795779567959F
:1021E000B795F111F8CFFAF4BB0F11F460FF1BC0E3
:1021F0006F5F7F4F8F4F9F4F16C0882311F096E976
:1022000011C0772321F09EE8872F762F05C0662323
:1022100071F096E8862F70E060E02AF09A95660FDC
:10222000771F881FDAF7880F9695879597F9089595
:10223000990F0008550FAA0BE0E8FEEF16161706D7
:10224000E807F907C0F012161306E407F50798F03F
:10225000621B730B840B950B39F40A2661F0232B58
:10226000242B252B21F408950A2609F4A140A695D4
:102270008FEF811D811D08950E944F110C94C01194
:102280000E94B21138F00E94B91120F0952311F08C
:102290000C94A9110C94AF1111240C94F4110E9408
:1022A000D11170F3959FC1F3950F50E0551F629FB8
:1022B000F001729FBB27F00DB11D639FAA27F00D9F
:1022C000B11DAA1F649F6627B00DA11D661F829FC6
:1022D0002227B00DA11D621F739FB00DA11D621FAB
:1022E000839FA00D611D221F749F3327A00D611DC8
:1022F000231F849F600D211D822F762F6A2F1124AA
:102300009F5750409AF0F1F088234AF0EE0FFF1FDC
:10231000BB1F661F771F881F91505040A9F79E3F33
:10232000510580F00C94A9110C94F4115F3FE4F373
:10233000983ED4F3869577956795B795F795E79589
:102340009F5FC1F7FE2B880F911D9695879597F992
:10235000089597F99F6780E870E060E008959FEF27
:1023600080EC089500240A9416161706180609062C
:10237000089500240A9412161306140605060895FB
:10238000092E0394000C11F4882352F0BB0F40F483
:10239000BF2B11F460FF04C06F5F7F4F8F4F9F4FC3
:1023A000089557FD9058440F551F59F05F3F71F045
:1023B0004795880F97FB991F61F09F3F79F08795AC
:1023C0000895121613061406551FF2CF4695F1DF35
:1023D00008C0161617061806991FF1CF86957105C5
:1023E000610508940895E894BB2766277727CB01F9
:1023F00097F908950E943C12A59F900DB49F900DEF
:10240000A49F800D911D112408952F923F924F9209
:102410005F926F927F928F929F92AF92BF92CF9274
:10242000DF92EF92FF920F931F93CF93DF93CDB77D
:10243000DEB7CA1BDB0B0FB6F894DEBF0FBECDBFF5
:1024400009942A88398848885F846E847D848C84C6
:102450009B84AA84B984C884DF80EE80FD800C81CF
:102460001B81AA81B981CE0FD11D0FB6F894DEBFB2
:102470000FBECDBFED010895A29FB001B39FC00173
:10248000A39F700D811D1124911DB29F700D811DA0
:102490001124911D08955058BB27AA270E9463124A
:1024A0000C94C0110E94B21138F00E94B91120F0B2
:1024B00039F49F3F19F426F40C94AF110EF4E09513
:1024C000E7FB0C94A911E92F0E94D11158F3BA1718
:1024D000620773078407950720F079F4A6F50C943A
:1024E000F3110EF4E0950B2EBA2FA02D0B01B901BC
:1024F00090010C01CA01A0011124FF27591B99F07A
:10250000593F50F4503E68F11A16F040A22F232F85
:10251000342F4427585FF3CF469537952795A795D5
:10252000F0405395C9F77EF41F16BA0B620B730B7C
:10253000840BBAF09150A1F0FF0FBB1F661F771FED
:10254000881FC2F70EC0BA0F621F731F841F48F4A2
:10255000879577956795B795F7959E3F08F0B0CF2B
:102560009395880F08F09927EE0F97958795089512
:102570000E94CC120C94C0110E94B91158F00E9414
:10258000B21140F029F45F3F29F00C94A9115111C8
:102590000C94F4110C94AF110E94D11168F399239B
:1025A000B1F3552391F3951B550BBB27AA2762174F
:1025B0007307840738F09F5F5F4F220F331F441F5C
:1025C000AA1FA9F335D00E2E3AF0E0E832D0915090
:1025D0005040E695001CCAF72BD0FE2F29D0660F7D
:1025E000771F881FBB1F261737074807AB07B0E8C0
:1025F00009F0BB0B802DBF01FF2793585F4F3AF0C6
:102600009E3F510578F00C94A9110C94F4115F3F92
:10261000E4F3983ED4F3869577956795B795F7954B
:102620009F5FC9F7880F911D9695879597F9089533
:10263000E1E0660F771F881FBB1F621773078407CF
:10264000BA0720F0621B730B840BBA0BEE1F88F7DE
:10265000E09508950E9431136894B1110C94F4111F
:1026600008950E94D91188F09F5798F0B92F9927A3
:10267000B751B0F0E1F0660F771F881F991F1AF06D
:10268000BA95C9F714C0B13091F00E94F311B1E0CE
:1026900008950C94F311672F782F8827B85F39F0CD
:1026A000B93FCCF3869577956795B395D9F73EF406
:1026B00090958095709561957F4F8F4F9F4F0895AE
:1026C0000E94181108F48FEF0895A1E21A2EAA1B98
:1026D000BB1BFD010DC0AA1FBB1FEE1FFF1FA217D2
:1026E000B307E407F50720F0A21BB30BE40BF50BCF
:1026F000661F771F881F991F1A9469F76095709558
:10270000809590959B01AC01BD01CF010895EE0F1E
:10271000FF1F0590F491E02D09940F931F93CF9321
:10272000DF938230910510F482E090E0E091620343
:10273000F091630330E020E0B0E0A0E0309799F43E
:102740002115310509F44AC0281B390B2430310505
:10275000D8F58A819B816115710589F1FB0193830D
:102760008283FE0111C0408151810281138148178B
:102770005907E0F04817590799F4109761F012963D
:102780000C93129713961C933296CF01DF91CF9141
:102790001F910F9108950093620310936303F4CF88
:1027A0002115310551F04217530738F0A901DB011B
:1027B0009A01BD01DF01F801C1CFEF01F9CF90937C
:1027C000630380936203CDCFFE01E20FF31F819379
:1027D00091932250310939832883D7CF2091600308
:1027E00030916103232B41F42091020130910301C8
:1027F0003093610320936003209100013091010127
:102800002115310541F42DB73EB740910401509197
:102810000501241B350BE0916003F0916103E21781
:10282000F307A0F42E1B3F0B2817390778F0AC01F3
:102830004E5F5F4F2417350748F04E0F5F1F5093D0
:10284000610340936003819391939FCFF0E0E0E0B8
:102850009CCFCF93DF930097E9F0FC01329713826E
:102860001282A0916203B0916303ED0130E020E099
:102870001097A1F420813181820F931F2091600372
:10288000309161032817390709F061C0F0936103A3
:10289000E0936003DF91CF910895EA01CE17DF073F
:1028A000E8F54A815B819E0141155105B1F7E901C7
:1028B000FB83EA8349915991C40FD51FEC17FD079B
:1028C00061F4808191810296840F951FE9019983BB
:1028D0008883828193819B838A83F0E0E0E0129673
:1028E0008D919C9113970097B9F52D913C9111977B
:1028F000CD010296820F931F2091600330916103F6
:102900002817390739F6309751F510926303109262
:102910006203B0936103A0936003BCCFD383C283EF
:1029200040815181840F951FC817D90761F44E5F0C
:102930005F4F88819981480F591F518340838A8155
:102940009B81938382832115310509F0B0CFF093E9
:102950006303E09362039ECFFD01DC01C0CF1382CD
:102960001282D7CFB0E0A0E0E8EBF4E10C940712BC
:102970008C01009751F4CB010E948D138C01C8018A
:10298000CDB7DEB7E0E10C942312FC01E60FF71F90
:102990009C0122503109E217F30708F49DC0D901C8
:1029A000CD91DC911197C617D70798F0C530D105A6
:1029B00030F3CE0104978617970708F3C61BD70B91
:1029C0002297C193D1936D937C93CF010E942914D8
:1029D000D6CF5B01AC1ABD0A4C018C0E9D1EA09196
:1029E0006203B0916303512C412CF12CE12C109720
:1029F00031F580916003909161038815990509F084
:102A00005CC04616570608F058C0809100019091AE
:102A10000101009741F48DB79EB740910401509198
:102A20000501841B950BE817F90708F055C0F093D2
:102A30006103E0936003F90171836083A0CF8D91FE
:102A40009C91119712966C90129713967C90139705
:102A5000A815B90559F56C0142E0C40ED11CCA1481
:102A6000DB0420F1AC014A195B09DA0112961597D3
:102A700080F06282738251834083D9016D937C938D
:102A8000E114F10471F0D7011396FC93EE931297C1
:102A900076CF22968C0F9D1FF90191838083F301DD
:102AA000EFCFF0936303E093620369CF48165906B2
:102AB00008F42C017D01D3019ACFCB010E948D1324
:102AC0007C01009749F0AE01B8010E946F15C80162
:102AD0000E942914870153CF10E000E050CFFB0182
:102AE000DC0102C001900D9241505040D8F708958A
:102AF000FB01DC018D91019080190110D9F3990B34
:102B00000895FB01DC0101900D920020E1F708958A
:102B100010E0CDE5D0E004C0FE010E9487132196AD
:0A2B2000CE35D107C9F7F894FFCFB6
:102B2A00000064038000A301A601B601C301CC0121
:102B3A00D901CDCCCC3D0AD7233C17B7D13877CCB5
:102B4A002B329595E6241FB14F0A00002041000060
:102B5A00C84200401C4620BCBE4CCA1B0E5AAEC519
:102B6A009D743F065B4F666D7D077F6F777C395E8C
:102B7A007971000000001803380265026503D60265
:102B8A007402C80200000000B40487040C055D0446
:102B9A0080046D045E0422225C5C6208660C6E0A84
:102BAA00720D7409003F3F3F0053657269616C20E2
:102BBA00417661696C61626C65000D0A0061786931
:102BCA007330004F6B00496E636F6D706C6574658E
:102BDA00496E70757400496E76616C6964496E70ED
:102BEA007574004E6F4D656D6F7279004E6F745338
:102BFA007570706F7274656400546F6F44656570A8
:022C0A000000C8
:107E0000112484B714BE81FFF0D085E080938100F7
:107E100082E08093C00088E18093C10086E0809377
:107E2000C20080E18093C4008EE0C9D0259A86E02C
:107E300020E33CEF91E0309385002093840096BBD3
:107E4000B09BFECF1D9AA8958150A9F7CC24DD24C4
:107E500088248394B5E0AB2EA1E19A2EF3E0BF2EE7
:107E6000A2D0813461F49FD0082FAFD0023811F036
:107E7000013811F484E001C083E08DD089C08234E0
:107E800011F484E103C0853419F485E0A6D080C0E4
:107E9000853579F488D0E82EFF2485D0082F10E0AE
:107EA000102F00270E291F29000F111F8ED06801E7
:107EB0006FC0863521F484E090D080E0DECF843638
:107EC00009F040C070D06FD0082F6DD080E0C81688
:107ED00080E7D80618F4F601B7BEE895C0E0D1E017
:107EE00062D089930C17E1F7F0E0CF16F0E7DF06D8
:107EF00018F0F601B7BEE89568D007B600FCFDCFD4
:107F0000A601A0E0B1E02C9130E011968C91119780
:107F100090E0982F8827822B932B1296FA010C0160
:107F200087BEE89511244E5F5F4FF1E0A038BF0790
:107F300051F7F601A7BEE89507B600FCFDCF97BE46
:107F4000E89526C08437B1F42ED02DD0F82E2BD052
:107F50003CD0F601EF2C8F010F5F1F4F84911BD097
:107F6000EA94F801C1F70894C11CD11CFA94CF0C13
:107F7000D11C0EC0853739F428D08EE10CD085E9AC
:107F80000AD08FE07ACF813511F488E018D01DD067
:107F900080E101D065CF982F8091C00085FFFCCF94
:107FA0009093C60008958091C00087FFFCCF809118
:107FB000C00084FD01C0A8958091C6000895E0E648
:107FC000F0E098E1908380830895EDDF803219F02E
:107FD00088E0F5DFFFCF84E1DECF1F93182FE3DFCA
:107FE0001150E9F7F2DF1F91089580E0E8DFEE27F6
:047FF000FF270994CA
:027FFE00040479
:0400000300007E007B
:00000001FF
